:020000040800F2
:1000000000A00020B9020008C1020008C5020008D3
:10001000DD020008E1020008F9020008000000000B
:1000200000000000000000000000000011030008B4
:10003000150300080000000019030008F10700087C
:100040002D0300082D0300082D0300082D030008D0
:100050002D0300082D0300082D0300082D030008C0
:100060002D0300082D0300082D0300082D030008B0
:100070002D0300082D0300082D0300082D030008A0
:100080002D0300082D0300082D0300082D03000890
:100090002D0300082D0300082D0300082D03000880
:1000A0002D0300082D0300082D0300082D03000870
:1000B0002D0300082D0300082D0300082D03000860
:1000C0002D0300082D0300082D0300082D03000850
:1000D0002D0300082D0300082D0300082D03000840
:1000E0002D0300082D0300082D0300082D03000830
:1000F0002D0300082D0300082D0300082D03000820
:100100000000000000000000000000002D030008B7
:100110002D0300082D0300082D0300082D030008FF
:100120002D0300082D0300082D0300082D030008EF
:100130002D0300082D03000800000000000000004F
:100140002D0300082D0300082D0300080000000007
:10015000000000000000000000000000000000009F
:1001600000000000000000002D0300082D0300081F
:100170002D03000800000000000000000000000047
:10018000000000002D03000800B583B000F0FCF96A
:10019000384B394A1360394A136039490CE00A6810
:1001A0004B6801F10C04886803E01168196004339E
:1001B00004329842F9D82146324B9942EFD32E4B64
:1001C0001A68314B9A4204D12C4B1A682F4B9A4231
:1001D00000D0FEE7274B2E4A13602E4A13602E4BA9
:1001E0000AE0194651F8082B5B6802E00020106015
:1001F00004329A42FAD30B46284A9342F1D3244B55
:100200001B6813B9234B1B6803B1FEE700F0C8F964
:10021000694601A800F0ACF9214C224B1C1BA4102C
:10022000002504E01E4B53F8253098470135AC42B9
:10023000F8DC1D4C1D4B1C1BA410002504E01A4BC0
:1002400053F8253098470135AC42F8DC0099019805
:1002500000F0D2FA0546164C164B1C1BA41004E005
:10026000013C134B53F824309847002CF8DC284607
:1002700000F078F9BABADECA0000002020000020A1
:100280003003000848030008785634123254769838
:100290002400002030000020480300085803000814
:1002A00058030008580300085803000858030008C2
:1002B000580300085803000808B5FFF765FF00BFA2
:1002C00000BEFEE71EF0040F0CBFEFF30880EFF353
:1002D00009807146124A104700BEFEE700BEFEE7E5
:1002E0001EF0040F0CBFEFF30880EFF30980714696
:1002F0000C4A104700BEFEE71EF0040F0CBFEFF3E0
:100300000880EFF309807146074A104700BEFEE7F8
:1003100000BEFEE700BEFEE700BEFEE7704700003D
:10032000D9020008F50200080D03000800BEFEE730
:100330009C08000800000020240000209C08000801
:1003400000000010000000102400002034000020F5
:08035000000000100000001085
:1003580070B505460E46B0F1904F16D0404B984206
:1003680013D003F5806398420FD003F58063984259
:100378000BD003F58063984207D003F58063984259
:1003880003D0B921374800F0F7F833681BB9BA2110
:10039800344800F0F1F83379032B03D9BB213148F5
:1003A80000F0EAF8F379022B03D9BC212D4800F0BC
:1003B800E3F8002451E00123A340326893434BD172
:1003C8003379013BDBB2012B2CD87379013BDBB2CB
:1003D800022B03D9CC21234800F0CEF8A96863008A
:1003E80003229A4021EA0202AA60A968727902FAF5
:1003F80003F30B43AB60B379012B03D9D32119481D
:1004080000F0BAF8AA8891B2A3B201229A4021EA70
:100418000202AA80A98889B2B27902FA03F30B43CF
:100428009BB2AB802A686300032101FA03F022EA39
:1004380000022A60286832799A4002432A60EA68F2
:10044800A0B24000814022EA0101E960E968F2793E
:1004580002FA03F30B43EB6001340F2CABD970BDE8
:10046800000400483808000838B504460D46B0F1C5
:10047800904F17D00F4B984214D003F580639842E1
:1004880010D003F5806398420CD003F5806398423E
:1004980008D003F58063984204D04FF4C47106482D
:1004A80000F06AF825B940F28911034800F064F8B1
:1004B800A56138BD000400483808000838B504466E
:1004C8000D46B0F1904F17D00F4B984214D003F55A
:1004D8008063984210D003F5806398420CD003F5EE
:1004E8008063984208D003F58063984204D04FF4A3
:1004F800CD71064800F040F825B940F29B11034839
:1005080000F03AF8258538BD00040048380800088E
:1005180038B504460D460E4B034003B920B940F2E6
:100528005C510C4800F028F8012D04D940F25D51C7
:10053800084800F021F825B1074A53691C43546163
:1005480038BD054A536923EA0404546138BD00BF25
:10055800A8FF81CE6C08000800100240FEE700BF2B
:1005680008B50120FFF7FAFF01230360014B0B6078
:10057800704700BF0400002008B5FFF7F1FF00BF77
:1005880008B500F065F8024B024A9A6008BD00BF42
:1005980000ED00E00000000808B500F08BF808BD89
:1005A80082B0002301930093274A136843F48033F1
:1005B8001360254B1B6803F400330093019B013340
:1005C8000193009B1BB9019BB3F5A06FF1D11E4BA2
:1005D8001B6813F4003F02D00123009301E00023BD
:1005E8000093009B012B2CD11222184B1A60A3F503
:1005F80080535A685A605A685A605A6842F480624E
:100608005A605A6822F47C125A605A6842F4E81216
:100618005A601A6842F080721A600B4B1B6813F01C
:10062800007FFAD0084B5A6822F003025A605A68D1
:1006380042F002025A60044B5B6803F00C03082B7B
:10064800F9D102B0704700BF0010024000200240FC
:1006580008B5144B1A6842F001021A605968124A28
:100668000A405A601A6822F0847222F480321A60B2
:100678001A6822F480221A605A6822F4FE025A602C
:10068800DA6A22F00F02DA62196B084A0A401A6322
:1006980000229A60FFF784FF4FF00062044B9A60D3
:1006A80008BD00BF001002400CC07FF8CCFC00FF62
:1006B80000ED00E01D4B5B6803F00C03042B06D033
:1006C800082B08D01BBB1A4A1A4B1A6022E0184A9A
:1006D800184B1A601EE0154A53685268C3F38343E7
:1006E800023312F4803F05D1134A02FB03F3114A87
:1006F80013600FE00D4AD26A02F00F02511C0C4A37
:10070800B2FBF1F202FB03F30A4A136002E0084A63
:10071800084B1A60054B5B68C3F30313074AD35CA5
:10072800DAB204490B68D3400B60704700100240EE
:1007380000127A001C00002000093D000C00002077
:1007480030B583B001214FF40010FFF7E1FE4FF4FC
:100758000045009501238DF8043000238DF80630FC
:1007680003228DF805208DF80730054C6946204690
:10077800FFF7EEFD29462046FFF7A0FE03B030BD87
:10078800001000480A4B1B680A4AA2FB03239B0976
:10079800013BB3F1807F09D2074A5360F021074B30
:1007A80083F823100023936007231360704700BF6A
:1007B8001C000020D34D621010E000E000ED00E0C6
:1007C800034B1860024B1B68002BFBD1704700BF1E
:1007D8002C000020034B1B681BB1024A1368013B25
:1007E800136070472C00002008B5FFF7F3FF08BD21
:1007F80010B5FFF7C7FFFFF7A3FF00244FF4004130
:100808000A48FFF731FE14B94FF47A7001E040F25C
:10081800EE20FFF7D5FF4FF400410448FFF74EFEE6
:10082800FA20FFF7CDFF0134E8E700BF00100048C9
:100838002E2E2F73797374656D2F7372632F7374F3
:100848006D333266332D7374647065726970682F06
:1008580073746D3332663330785F6770696F2E63F7
:10086800000000002E2E2F73797374656D2F73723C
:10087800632F73746D333266332D737464706572CD
:100888006970682F73746D3332663330785F7263C2
:04089800632E630068
:10089C0078563412280000200000000000000000F0
:1008AC0000000000010203040607080900A24A0424
:0408BC0032547698A4
:040000050800018965
:00000001FF
